{
  "_format": "hh-sol-artifact-1",
  "contractName": "Transactions",
  "sourceName": "contracts/Transactions.sol",
  "abi": [
    {
      "anonymous": false,
      "inputs": [
        {
          "indexed": false,
          "internalType": "address",
          "name": "from",
          "type": "address"
        },
        {
          "indexed": false,
          "internalType": "address",
          "name": "receiver",
          "type": "address"
        },
        {
          "indexed": false,
          "internalType": "uint256",
          "name": "amount",
          "type": "uint256"
        },
        {
          "indexed": false,
          "internalType": "string",
          "name": "message",
          "type": "string"
        },
        {
          "indexed": false,
          "internalType": "uint256",
          "name": "timestamp",
          "type": "uint256"
        },
        {
          "indexed": false,
          "internalType": "string",
          "name": "keyword",
          "type": "string"
        }
      ],
      "name": "Transfer",
      "type": "event"
    },
    {
      "inputs": [
        {
          "internalType": "address payable",
          "name": "receiver",
          "type": "address"
        },
        {
          "internalType": "uint256",
          "name": "amount",
          "type": "uint256"
        },
        {
          "internalType": "string",
          "name": "message",
          "type": "string"
        },
        {
          "internalType": "string",
          "name": "keyword",
          "type": "string"
        }
      ],
      "name": "addToBlockchain",
      "outputs": [],
      "stateMutability": "nonpayable",
      "type": "function"
    },
    {
      "inputs": [],
      "name": "getAllTransactions",
      "outputs": [
        {
          "components": [
            {
              "internalType": "address",
              "name": "sender",
              "type": "address"
            },
            {
              "internalType": "address",
              "name": "receiver",
              "type": "address"
            },
            {
              "internalType": "uint256",
              "name": "amount",
              "type": "uint256"
            },
            {
              "internalType": "string",
              "name": "message",
              "type": "string"
            },
            {
              "internalType": "uint256",
              "name": "timestamp",
              "type": "uint256"
            },
            {
              "internalType": "string",
              "name": "keyword",
              "type": "string"
            }
          ],
          "internalType": "struct Transactions.TransferStruct[]",
          "name": "",
          "type": "tuple[]"
        }
      ],
      "stateMutability": "view",
      "type": "function"
    },
    {
      "inputs": [],
      "name": "getTransactionCount",
      "outputs": [
        {
          "internalType": "uint256",
          "name": "",
          "type": "uint256"
        }
      ],
      "stateMutability": "view",
      "type": "function"
    },
    {
      "inputs": [
        {
          "internalType": "uint256",
          "name": "offset",
          "type": "uint256"
        },
        {
          "internalType": "uint256",
          "name": "limit",
          "type": "uint256"
        }
      ],
      "name": "getTransactionPaging",
      "outputs": [
        {
          "components": [
            {
              "internalType": "address",
              "name": "sender",
              "type": "address"
            },
            {
              "internalType": "address",
              "name": "receiver",
              "type": "address"
            },
            {
              "internalType": "uint256",
              "name": "amount",
              "type": "uint256"
            },
            {
              "internalType": "string",
              "name": "message",
              "type": "string"
            },
            {
              "internalType": "uint256",
              "name": "timestamp",
              "type": "uint256"
            },
            {
              "internalType": "string",
              "name": "keyword",
              "type": "string"
            }
          ],
          "internalType": "struct Transactions.TransferStruct[]",
          "name": "paginatedTransactions",
          "type": "tuple[]"
        },
        {
          "internalType": "uint256",
          "name": "nextOffset",
          "type": "uint256"
        },
        {
          "internalType": "uint256",
          "name": "total",
          "type": "uint256"
        }
      ],
      "stateMutability": "view",
      "type": "function"
    }
  ],
  "bytecode": "0x608060405234801561001057600080fd5b5061111d806100206000396000f3fe608060405234801561001057600080fd5b506004361061004c5760003560e01c806327506f53146100515780632e7700f01461006f57806333f4bac41461008d578063cc2d7ead146100bf575b600080fd5b6100596100db565b6040516100669190610d0e565b60405180910390f35b61007761031e565b6040516100849190610d6e565b60405180910390f35b6100a760048036038101906100a29190610a8d565b610327565b6040516100b693929190610d30565b60405180910390f35b6100d960048036038101906100d491906109fa565b6106a1565b005b60606001805480602002602001604051908101604052809291908181526020016000905b8282101561031557838290600052602060002090600602016040518060c00160405290816000820160009054906101000a900473ffffffffffffffffffffffffffffffffffffffff1673ffffffffffffffffffffffffffffffffffffffff1673ffffffffffffffffffffffffffffffffffffffff1681526020016001820160009054906101000a900473ffffffffffffffffffffffffffffffffffffffff1673ffffffffffffffffffffffffffffffffffffffff1673ffffffffffffffffffffffffffffffffffffffff168152602001600282015481526020016003820180546101e890610fa0565b80601f016020809104026020016040519081016040528092919081815260200182805461021490610fa0565b80156102615780601f1061023657610100808354040283529160200191610261565b820191906000526020600020905b81548152906001019060200180831161024457829003601f168201915b505050505081526020016004820154815260200160058201805461028490610fa0565b80601f01602080910402602001604051908101604052809291908181526020018280546102b090610fa0565b80156102fd5780601f106102d2576101008083540402835291602001916102fd565b820191906000526020600020905b8154815290600101906020018083116102e057829003601f168201915b505050505081525050815260200190600101906100ff565b50505050905090565b60008054905090565b6060600080600084141561033a57600193505b846000546103489190610ea6565b841115610360578460005461035d9190610ea6565b93505b60008467ffffffffffffffff8111156103a2577f4e487b7100000000000000000000000000000000000000000000000000000000600052604160045260246000fd5b6040519080825280602002602001820160405280156103db57816020015b6103c8610863565b8152602001906001900390816103c05790505b50905060005b8581101561068257600181886103f79190610e50565b8154811061042e577f4e487b7100000000000000000000000000000000000000000000000000000000600052603260045260246000fd5b90600052602060002090600602016040518060c00160405290816000820160009054906101000a900473ffffffffffffffffffffffffffffffffffffffff1673ffffffffffffffffffffffffffffffffffffffff1673ffffffffffffffffffffffffffffffffffffffff1681526020016001820160009054906101000a900473ffffffffffffffffffffffffffffffffffffffff1673ffffffffffffffffffffffffffffffffffffffff1673ffffffffffffffffffffffffffffffffffffffff1681526020016002820154815260200160038201805461050d90610fa0565b80601f016020809104026020016040519081016040528092919081815260200182805461053990610fa0565b80156105865780601f1061055b57610100808354040283529160200191610586565b820191906000526020600020905b81548152906001019060200180831161056957829003601f168201915b50505050508152602001600482015481526020016005820180546105a990610fa0565b80601f01602080910402602001604051908101604052809291908181526020018280546105d590610fa0565b80156106225780601f106105f757610100808354040283529160200191610622565b820191906000526020600020905b81548152906001019060200180831161060557829003601f168201915b505050505081525050828281518110610664577f4e487b7100000000000000000000000000000000000000000000000000000000600052603260045260246000fd5b6020026020010181905250808061067a90610fd2565b9150506103e1565b508085876106909190610e50565b600054935093509350509250925092565b60016000808282546106b39190610e50565b9250508190555060016040518060c001604052803373ffffffffffffffffffffffffffffffffffffffff1681526020018673ffffffffffffffffffffffffffffffffffffffff16815260200185815260200184815260200142815260200183815250908060018154018082558091505060019003906000526020600020906006020160009091909190915060008201518160000160006101000a81548173ffffffffffffffffffffffffffffffffffffffff021916908373ffffffffffffffffffffffffffffffffffffffff16021790555060208201518160010160006101000a81548173ffffffffffffffffffffffffffffffffffffffff021916908373ffffffffffffffffffffffffffffffffffffffff1602179055506040820151816002015560608201518160030190805190602001906107f29291906108c5565b506080820151816004015560a08201518160050190805190602001906108199291906108c5565b5050507f416cfa4330a4565f45c2fd2dd4826a83a37443aba2ce6f79477c7355afac35fa33858585428660405161085596959493929190610c9f565b60405180910390a150505050565b6040518060c00160405280600073ffffffffffffffffffffffffffffffffffffffff168152602001600073ffffffffffffffffffffffffffffffffffffffff168152602001600081526020016060815260200160008152602001606081525090565b8280546108d190610fa0565b90600052602060002090601f0160209004810192826108f3576000855561093a565b82601f1061090c57805160ff191683800117855561093a565b8280016001018555821561093a579182015b8281111561093957825182559160200191906001019061091e565b5b509050610947919061094b565b5090565b5b8082111561096457600081600090555060010161094c565b5090565b600061097b61097684610dba565b610d89565b90508281526020810184848401111561099357600080fd5b61099e848285610f5e565b509392505050565b6000813590506109b5816110b9565b92915050565b600082601f8301126109cc57600080fd5b81356109dc848260208601610968565b91505092915050565b6000813590506109f4816110d0565b92915050565b60008060008060808587031215610a1057600080fd5b6000610a1e878288016109a6565b9450506020610a2f878288016109e5565b935050604085013567ffffffffffffffff811115610a4c57600080fd5b610a58878288016109bb565b925050606085013567ffffffffffffffff811115610a7557600080fd5b610a81878288016109bb565b91505092959194509250565b60008060408385031215610aa057600080fd5b6000610aae858286016109e5565b9250506020610abf858286016109e5565b9150509250929050565b6000610ad58383610bf1565b905092915050565b610ae681610f28565b82525050565b610af581610eda565b82525050565b610b0481610eda565b82525050565b6000610b1582610dfa565b610b1f8185610e1d565b935083602082028501610b3185610dea565b8060005b85811015610b6d5784840389528151610b4e8582610ac9565b9450610b5983610e10565b925060208a01995050600181019050610b35565b50829750879550505050505092915050565b6000610b8a82610e05565b610b948185610e2e565b9350610ba4818560208601610f6d565b610bad816110a8565b840191505092915050565b6000610bc382610e05565b610bcd8185610e3f565b9350610bdd818560208601610f6d565b610be6816110a8565b840191505092915050565b600060c083016000830151610c096000860182610aec565b506020830151610c1c6020860182610aec565b506040830151610c2f6040860182610c81565b5060608301518482036060860152610c478282610b7f565b9150506080830151610c5c6080860182610c81565b5060a083015184820360a0860152610c748282610b7f565b9150508091505092915050565b610c8a81610f1e565b82525050565b610c9981610f1e565b82525050565b600060c082019050610cb46000830189610afb565b610cc16020830188610add565b610cce6040830187610c90565b8181036060830152610ce08186610bb8565b9050610cef6080830185610c90565b81810360a0830152610d018184610bb8565b9050979650505050505050565b60006020820190508181036000830152610d288184610b0a565b905092915050565b60006060820190508181036000830152610d4a8186610b0a565b9050610d596020830185610c90565b610d666040830184610c90565b949350505050565b6000602082019050610d836000830184610c90565b92915050565b6000604051905081810181811067ffffffffffffffff82111715610db057610daf611079565b5b8060405250919050565b600067ffffffffffffffff821115610dd557610dd4611079565b5b601f19601f8301169050602081019050919050565b6000819050602082019050919050565b600081519050919050565b600081519050919050565b6000602082019050919050565b600082825260208201905092915050565b600082825260208201905092915050565b600082825260208201905092915050565b6000610e5b82610f1e565b9150610e6683610f1e565b9250827fffffffffffffffffffffffffffffffffffffffffffffffffffffffffffffffff03821115610e9b57610e9a61101b565b5b828201905092915050565b6000610eb182610f1e565b9150610ebc83610f1e565b925082821015610ecf57610ece61101b565b5b828203905092915050565b6000610ee582610efe565b9050919050565b6000610ef782610efe565b9050919050565b600073ffffffffffffffffffffffffffffffffffffffff82169050919050565b6000819050919050565b6000610f3382610f3a565b9050919050565b6000610f4582610f4c565b9050919050565b6000610f5782610efe565b9050919050565b82818337600083830152505050565b60005b83811015610f8b578082015181840152602081019050610f70565b83811115610f9a576000848401525b50505050565b60006002820490506001821680610fb857607f821691505b60208210811415610fcc57610fcb61104a565b5b50919050565b6000610fdd82610f1e565b91507fffffffffffffffffffffffffffffffffffffffffffffffffffffffffffffffff8214156110105761100f61101b565b5b600182019050919050565b7f4e487b7100000000000000000000000000000000000000000000000000000000600052601160045260246000fd5b7f4e487b7100000000000000000000000000000000000000000000000000000000600052602260045260246000fd5b7f4e487b7100000000000000000000000000000000000000000000000000000000600052604160045260246000fd5b6000601f19601f8301169050919050565b6110c281610eec565b81146110cd57600080fd5b50565b6110d981610f1e565b81146110e457600080fd5b5056fea2646970667358221220e6a6c12f32554796c1bec66e62af8636c3a8519ae060334f05fc452a6dbf716c64736f6c63430008000033",
  "linkReferences": {},
  "deployedLinkReferences": {}
}